{
  "transactions": [
    {
      "hash": "0x9610bc5ca8cd310a19f6d60de3dbe7ec11d2063bc5f08362a470a8fbc2b20d1f",
      "transactionType": "CALL",
      "contractName": null,
      "contractAddress": "0xfd2ec58ce4c87b253567ff98ce2778de6af0101b",
      "function": "mint(uint256)",
      "arguments": [
        "100000000000000000000"
      ],
      "transaction": {
        "from": "0xbe92f2692f42580300fd8d0ee198b5bbbe303e78",
        "to": "0xfd2ec58ce4c87b253567ff98ce2778de6af0101b",
        "gas": "0x16f05",
        "value": "0x0",
        "input": "0xa0712d680000000000000000000000000000000000000000000000056bc75e2d63100000",
        "nonce": "0xb",
        "chainId": "0x8274f"
      },
      "additionalContracts": [],
      "isFixedGasLimit": false
    },
    {
      "hash": "0x58302949bc28ba8375127481e1841bf181299f63c3da33c8f85361dd1449ae89",
      "transactionType": "CALL",
      "contractName": null,
      "contractAddress": "0xfd2ec58ce4c87b253567ff98ce2778de6af0101b",
      "function": "send((uint32,bytes32,uint256,uint256,bytes,bytes,bytes),(uint256,uint256),address)",
      "arguments": [
        "(40161, 0x000000000000000000000000f1771f24bdd7123acceae534945e96abc83bbb61, 100000000000000000000, 100000000000000000000, 0x, 0x, 0x)",
        "(1775914307502556, 0)",
        "0xbE92f2692f42580300fD8d0Ee198b5bBbe303e78"
      ],
      "transaction": {
        "from": "0xbe92f2692f42580300fd8d0ee198b5bbbe303e78",
        "to": "0xfd2ec58ce4c87b253567ff98ce2778de6af0101b",
        "gas": "0x51a10",
        "value": "0x64f2f457341dc",
        "input": "0xc7c7f5b3000000000000000000000000000000000000000000000000000000000000008000000000000000000000000000000000000000000000000000064f2f457341dc0000000000000000000000000000000000000000000000000000000000000000000000000000000000000000be92f2692f42580300fd8d0ee198b5bbbe303e780000000000000000000000000000000000000000000000000000000000009ce1000000000000000000000000f1771f24bdd7123acceae534945e96abc83bbb610000000000000000000000000000000000000000000000056bc75e2d631000000000000000000000000000000000000000000000000000056bc75e2d6310000000000000000000000000000000000000000000000000000000000000000000e000000000000000000000000000000000000000000000000000000000000001000000000000000000000000000000000000000000000000000000000000000120000000000000000000000000000000000000000000000000000000000000000000000000000000000000000000000000000000000000000000000000000000000000000000000000000000000000000000000000000000000000000000000000",
        "nonce": "0xc",
        "chainId": "0x8274f"
      },
      "additionalContracts": [],
      "isFixedGasLimit": false
    }
  ],
  "receipts": [
    {
      "status": "0x1",
      "cumulativeGasUsed": "0x15bc0",
      "logs": [
        {
          "address": "0xfd2ec58ce4c87b253567ff98ce2778de6af0101b",
          "topics": [
            "0xddf252ad1be2c89b69c2b068fc378daa952ba7f163c4a11628f55a4df523b3ef",
            "0x0000000000000000000000000000000000000000000000000000000000000000",
            "0x000000000000000000000000be92f2692f42580300fd8d0ee198b5bbbe303e78"
          ],
          "data": "0x0000000000000000000000000000000000000000000000056bc75e2d63100000",
          "blockHash": "0x089a844d917ce908a92a4b3da1b48ea19131b6b2475526d85ced2af6b43b80b5",
          "blockNumber": "0x538c29",
          "transactionHash": "0x9610bc5ca8cd310a19f6d60de3dbe7ec11d2063bc5f08362a470a8fbc2b20d1f",
          "transactionIndex": "0x1",
          "logIndex": "0x0",
          "removed": false
        }
      ],
      "logsBloom": "0x00000000000000004000000000000000000000000000000000000000000000000000000000000000000000000000000000000000000000000000000000000000000000000000000000000008400000000000000000000000000000000000000800000000020000000000000000000800000000000000000000000010000000000000000000400000000000000000000000000000000000000000000000000000000000000000000000000200000000000000000000000000000000000000000000000002000000000000000004000000000000000000000000000000000020000000000000000000000000000000000000000000000000000000000000000000",
      "type": "0x0",
      "transactionHash": "0x9610bc5ca8cd310a19f6d60de3dbe7ec11d2063bc5f08362a470a8fbc2b20d1f",
      "transactionIndex": "0x1",
      "blockHash": "0x089a844d917ce908a92a4b3da1b48ea19131b6b2475526d85ced2af6b43b80b5",
      "blockNumber": "0x538c29",
      "gasUsed": "0x109b8",
      "effectiveGasPrice": "0x1e0c6913b",
      "from": "0xbe92f2692f42580300fd8d0ee198b5bbbe303e78",
      "to": "0xfd2ec58ce4c87b253567ff98ce2778de6af0101b",
      "contractAddress": null,
      "l1Fee": "0x12d0a854d54a"
    },
    {
      "status": "0x1",
      "cumulativeGasUsed": "0x4d8c9",
      "logs": [
        {
          "address": "0xfd2ec58ce4c87b253567ff98ce2778de6af0101b",
          "topics": [
            "0xddf252ad1be2c89b69c2b068fc378daa952ba7f163c4a11628f55a4df523b3ef",
            "0x000000000000000000000000be92f2692f42580300fd8d0ee198b5bbbe303e78",
            "0x0000000000000000000000000000000000000000000000000000000000000000"
          ],
          "data": "0x0000000000000000000000000000000000000000000000056bc75e2d63100000",
          "blockHash": "0x089a844d917ce908a92a4b3da1b48ea19131b6b2475526d85ced2af6b43b80b5",
          "blockNumber": "0x538c29",
          "transactionHash": "0x58302949bc28ba8375127481e1841bf181299f63c3da33c8f85361dd1449ae89",
          "transactionIndex": "0x2",
          "logIndex": "0x1",
          "removed": false
        },
        {
          "address": "0x21f1c2b131557c3aeba918d590815c47dc4f20aa",
          "topics": [
            "0x61ed099e74a97a1d7f8bb0952a88ca8b7b8ebd00c126ea04671f92a81213318a"
          ],
          "data": "0x000000000000000000000000d0d47c34937ddbebbe698267a6bbb1dace51198d0000000000000000000000000000000000000000000000000003c47db119a5b0",
          "blockHash": "0x089a844d917ce908a92a4b3da1b48ea19131b6b2475526d85ced2af6b43b80b5",
          "blockNumber": "0x538c29",
          "transactionHash": "0x58302949bc28ba8375127481e1841bf181299f63c3da33c8f85361dd1449ae89",
          "transactionIndex": "0x2",
          "logIndex": "0x2",
          "removed": false
        },
        {
          "address": "0x21f1c2b131557c3aeba918d590815c47dc4f20aa",
          "topics": [
            "0x07ea52d82345d6e838192107d8fd7123d9c2ec8e916cd0aad13fd2b60db24644"
          ],
          "data": "0x000000000000000000000000000000000000000000000000000000000000006000000000000000000000000000000000000000000000000000000000000000a000000000000000000000000000000000000000000000000000000000000000c00000000000000000000000000000000000000000000000000000000000000001000000000000000000000000b186f85d0604fe58af2ea33fe40244f5eef7351b0000000000000000000000000000000000000000000000000000000000000000000000000000000000000000000000000000000000000000000000000000000100000000000000000000000000000000000000000000000000028ab194599c2c",
          "blockHash": "0x089a844d917ce908a92a4b3da1b48ea19131b6b2475526d85ced2af6b43b80b5",
          "blockNumber": "0x538c29",
          "transactionHash": "0x58302949bc28ba8375127481e1841bf181299f63c3da33c8f85361dd1449ae89",
          "transactionIndex": "0x2",
          "logIndex": "0x3",
          "removed": false
        },
        {
          "address": "0x6edce65403992e310a62460808c4b910d972f10f",
          "topics": [
            "0x1ab700d4ced0c005b164c0f789fd09fcbb0156d4c2041b8a3bfbcd961cd1567f"
          ],
          "data": "0x0000000000000000000000000000000000000000000000000000000000000060000000000000000000000000000000000000000000000000000000000000012000000000000000000000000021f1c2b131557c3aeba918d590815c47dc4f20aa000000000000000000000000000000000000000000000000000000000000009901000000000000000100009cea000000000000000000000000fd2ec58ce4c87b253567ff98ce2778de6af0101b00009ce1000000000000000000000000de54beb534efb7da0ba8116dd44926cfb3e1d1f40aecbbb20d7648510f3a270fdf1a8bde98e9e05d4e870f4fe0fec0d1630edf0c000000000000000000000000f1771f24bdd7123acceae534945e96abc83bbb610000000005f5e1000000000000000000000000000000000000000000000000000000000000000000000000000000160003010011010000000000000000000000000000ea6000000000000000000000",
          "blockHash": "0x089a844d917ce908a92a4b3da1b48ea19131b6b2475526d85ced2af6b43b80b5",
          "blockNumber": "0x538c29",
          "transactionHash": "0x58302949bc28ba8375127481e1841bf181299f63c3da33c8f85361dd1449ae89",
          "transactionIndex": "0x2",
          "logIndex": "0x4",
          "removed": false
        },
        {
          "address": "0xfd2ec58ce4c87b253567ff98ce2778de6af0101b",
          "topics": [
            "0x85496b760a4b7f8d66384b9df21b381f5d1b1e79f229a47aaf4c232edc2fe59a",
            "0x0aecbbb20d7648510f3a270fdf1a8bde98e9e05d4e870f4fe0fec0d1630edf0c",
            "0x000000000000000000000000be92f2692f42580300fd8d0ee198b5bbbe303e78"
          ],
          "data": "0x0000000000000000000000000000000000000000000000000000000000009ce10000000000000000000000000000000000000000000000056bc75e2d631000000000000000000000000000000000000000000000000000056bc75e2d63100000",
          "blockHash": "0x089a844d917ce908a92a4b3da1b48ea19131b6b2475526d85ced2af6b43b80b5",
          "blockNumber": "0x538c29",
          "transactionHash": "0x58302949bc28ba8375127481e1841bf181299f63c3da33c8f85361dd1449ae89",
          "transactionIndex": "0x2",
          "logIndex": "0x5",
          "removed": false
        }
      ],
      "logsBloom": "0x00000000000000004000000000000000000000000000000000000000000000000000000000000000200000000000000000000000000000000000000000000000000002000000010000000008400000000000000000000000000000000000000800000000020000008200000000000800000000000000000000002010000000000000000000400020000000080000000000000000000000000000000000000000000000008000008000100240000000000100000000400000000440000000000000000002000000000000000084000000000000000000000000000000000020100000040000000000000000000000002000000000008000000000000000000000",
      "type": "0x0",
      "transactionHash": "0x58302949bc28ba8375127481e1841bf181299f63c3da33c8f85361dd1449ae89",
      "transactionIndex": "0x2",
      "blockHash": "0x089a844d917ce908a92a4b3da1b48ea19131b6b2475526d85ced2af6b43b80b5",
      "blockNumber": "0x538c29",
      "gasUsed": "0x37d09",
      "effectiveGasPrice": "0x1e0c6913b",
      "from": "0xbe92f2692f42580300fd8d0ee198b5bbbe303e78",
      "to": "0xfd2ec58ce4c87b253567ff98ce2778de6af0101b",
      "contractAddress": null,
      "l1Fee": "0x12d0a854df05"
    }
  ],
  "libraries": [],
  "pending": [],
  "returns": {},
  "timestamp": 1720937296,
  "chain": 534351,
  "commit": "1d13134"
}