{
  "transactions": [
    {
      "hash": "0xa71d30a3ab65ebcfd4fe30f456f4b2f6a6b45b0fd02f5df685153d46b9eea611",
      "transactionType": "CALL",
      "contractName": null,
      "contractAddress": "0xde54beb534efb7da0ba8116dd44926cfb3e1d1f4",
      "function": "mint(uint256)",
      "arguments": [
        "100000000000000000000"
      ],
      "transaction": {
        "from": "0xbe92f2692f42580300fd8d0ee198b5bbbe303e78",
        "to": "0xde54beb534efb7da0ba8116dd44926cfb3e1d1f4",
        "gas": "0x16f05",
        "value": "0x0",
        "input": "0xa0712d680000000000000000000000000000000000000000000000056bc75e2d63100000",
        "nonce": "0x31",
        "chainId": "0xaa36a7"
      },
      "additionalContracts": [],
      "isFixedGasLimit": false
    },
    {
      "hash": "0x6746a021b16b83b20968fe84c519f194f990389b70095096a043cd4d71f06bc2",
      "transactionType": "CALL",
      "contractName": null,
      "contractAddress": "0xde54beb534efb7da0ba8116dd44926cfb3e1d1f4",
      "function": "send((uint32,bytes32,uint256,uint256,bytes,bytes,bytes),(uint256,uint256),address)",
      "arguments": [
        "(40245, 0x000000000000000000000000f1771f24bdd7123acceae534945e96abc83bbb61, 100000000000000000000, 100000000000000000000, 0x, 0x, 0x)",
        "(70551182917059, 0)",
        "0xbE92f2692f42580300fD8d0Ee198b5bBbe303e78"
      ],
      "transaction": {
        "from": "0xbe92f2692f42580300fd8d0ee198b5bbbe303e78",
        "to": "0xde54beb534efb7da0ba8116dd44926cfb3e1d1f4",
        "gas": "0x4eb18",
        "value": "0x402a7a323dc3",
        "input": "0xc7c7f5b300000000000000000000000000000000000000000000000000000000000000800000000000000000000000000000000000000000000000000000402a7a323dc30000000000000000000000000000000000000000000000000000000000000000000000000000000000000000be92f2692f42580300fd8d0ee198b5bbbe303e780000000000000000000000000000000000000000000000000000000000009d35000000000000000000000000f1771f24bdd7123acceae534945e96abc83bbb610000000000000000000000000000000000000000000000056bc75e2d631000000000000000000000000000000000000000000000000000056bc75e2d6310000000000000000000000000000000000000000000000000000000000000000000e000000000000000000000000000000000000000000000000000000000000001000000000000000000000000000000000000000000000000000000000000000120000000000000000000000000000000000000000000000000000000000000000000000000000000000000000000000000000000000000000000000000000000000000000000000000000000000000000000000000000000000000000000000000",
        "nonce": "0x32",
        "chainId": "0xaa36a7"
      },
      "additionalContracts": [],
      "isFixedGasLimit": false
    }
  ],
  "receipts": [
    {
      "status": "0x1",
      "cumulativeGasUsed": "0x17b07ed",
      "logs": [
        {
          "address": "0xde54beb534efb7da0ba8116dd44926cfb3e1d1f4",
          "topics": [
            "0xddf252ad1be2c89b69c2b068fc378daa952ba7f163c4a11628f55a4df523b3ef",
            "0x0000000000000000000000000000000000000000000000000000000000000000",
            "0x000000000000000000000000be92f2692f42580300fd8d0ee198b5bbbe303e78"
          ],
          "data": "0x0000000000000000000000000000000000000000000000056bc75e2d63100000",
          "blockHash": "0x834b951420807acea40fbc1d332321b967259af3bedaeb8a5ba69db436684bbc",
          "blockNumber": "0x603dcd",
          "transactionHash": "0xa71d30a3ab65ebcfd4fe30f456f4b2f6a6b45b0fd02f5df685153d46b9eea611",
          "transactionIndex": "0x5e",
          "logIndex": "0x187",
          "removed": false
        }
      ],
      "logsBloom": "0x00000000000000000000000020000000000000000000000000000000000000000000000000000000000000000000000000000000000000000000000000000000000000000000000000000008400000000000000000000000000000000000000800000000020000000000000000000800000000000000000000000010000000000000000000000000000000020000000001000000000000000000000000000000000000000000000000000200000000000000000000000000000000000000000000000002000000000000000000000000000000000000000000000000000020000000000000000000000000000000000000000000000000000000000000000000",
      "type": "0x2",
      "transactionHash": "0xa71d30a3ab65ebcfd4fe30f456f4b2f6a6b45b0fd02f5df685153d46b9eea611",
      "transactionIndex": "0x5e",
      "blockHash": "0x834b951420807acea40fbc1d332321b967259af3bedaeb8a5ba69db436684bbc",
      "blockNumber": "0x603dcd",
      "gasUsed": "0x109b8",
      "effectiveGasPrice": "0x31bd607555",
      "from": "0xbe92f2692f42580300fd8d0ee198b5bbbe303e78",
      "to": "0xde54beb534efb7da0ba8116dd44926cfb3e1d1f4",
      "contractAddress": null
    },
    {
      "status": "0x1",
      "cumulativeGasUsed": "0x17e977d",
      "logs": [
        {
          "address": "0xde54beb534efb7da0ba8116dd44926cfb3e1d1f4",
          "topics": [
            "0xddf252ad1be2c89b69c2b068fc378daa952ba7f163c4a11628f55a4df523b3ef",
            "0x000000000000000000000000be92f2692f42580300fd8d0ee198b5bbbe303e78",
            "0x0000000000000000000000000000000000000000000000000000000000000000"
          ],
          "data": "0x0000000000000000000000000000000000000000000000056bc75e2d63100000",
          "blockHash": "0x834b951420807acea40fbc1d332321b967259af3bedaeb8a5ba69db436684bbc",
          "blockNumber": "0x603dcd",
          "transactionHash": "0x6746a021b16b83b20968fe84c519f194f990389b70095096a043cd4d71f06bc2",
          "transactionIndex": "0x5f",
          "logIndex": "0x188",
          "removed": false
        },
        {
          "address": "0xcc1ae8cf5d3904cef3360a9532b477529b177cce",
          "topics": [
            "0x61ed099e74a97a1d7f8bb0952a88ca8b7b8ebd00c126ea04671f92a81213318a"
          ],
          "data": "0x000000000000000000000000718b92b5cb0a5552039b593faf724d182a881eda00000000000000000000000000000000000000000000000000003d06fa7eb4c3",
          "blockHash": "0x834b951420807acea40fbc1d332321b967259af3bedaeb8a5ba69db436684bbc",
          "blockNumber": "0x603dcd",
          "transactionHash": "0x6746a021b16b83b20968fe84c519f194f990389b70095096a043cd4d71f06bc2",
          "transactionIndex": "0x5f",
          "logIndex": "0x189",
          "removed": false
        },
        {
          "address": "0xcc1ae8cf5d3904cef3360a9532b477529b177cce",
          "topics": [
            "0x07ea52d82345d6e838192107d8fd7123d9c2ec8e916cd0aad13fd2b60db24644"
          ],
          "data": "0x000000000000000000000000000000000000000000000000000000000000006000000000000000000000000000000000000000000000000000000000000000a000000000000000000000000000000000000000000000000000000000000000c000000000000000000000000000000000000000000000000000000000000000010000000000000000000000008eebf8b423b73bfca51a1db4b7354aa0bfca919300000000000000000000000000000000000000000000000000000000000000000000000000000000000000000000000000000000000000000000000000000001000000000000000000000000000000000000000000000000000003237fb38900",
          "blockHash": "0x834b951420807acea40fbc1d332321b967259af3bedaeb8a5ba69db436684bbc",
          "blockNumber": "0x603dcd",
          "transactionHash": "0x6746a021b16b83b20968fe84c519f194f990389b70095096a043cd4d71f06bc2",
          "transactionIndex": "0x5f",
          "logIndex": "0x18a",
          "removed": false
        },
        {
          "address": "0x6edce65403992e310a62460808c4b910d972f10f",
          "topics": [
            "0x1ab700d4ced0c005b164c0f789fd09fcbb0156d4c2041b8a3bfbcd961cd1567f"
          ],
          "data": "0x00000000000000000000000000000000000000000000000000000000000000600000000000000000000000000000000000000000000000000000000000000120000000000000000000000000cc1ae8cf5d3904cef3360a9532b477529b177cce000000000000000000000000000000000000000000000000000000000000009901000000000000000100009ce1000000000000000000000000de54beb534efb7da0ba8116dd44926cfb3e1d1f400009d35000000000000000000000000bd935e8ad0e94a120de27493bebde3945a49580882176802d592159a56da3901bb3081c30c261f306a3829489c64ed34c8742413000000000000000000000000f1771f24bdd7123acceae534945e96abc83bbb610000000005f5e1000000000000000000000000000000000000000000000000000000000000000000000000000000160003010011010000000000000000000000000000ea6000000000000000000000",
          "blockHash": "0x834b951420807acea40fbc1d332321b967259af3bedaeb8a5ba69db436684bbc",
          "blockNumber": "0x603dcd",
          "transactionHash": "0x6746a021b16b83b20968fe84c519f194f990389b70095096a043cd4d71f06bc2",
          "transactionIndex": "0x5f",
          "logIndex": "0x18b",
          "removed": false
        },
        {
          "address": "0xde54beb534efb7da0ba8116dd44926cfb3e1d1f4",
          "topics": [
            "0x85496b760a4b7f8d66384b9df21b381f5d1b1e79f229a47aaf4c232edc2fe59a",
            "0x82176802d592159a56da3901bb3081c30c261f306a3829489c64ed34c8742413",
            "0x000000000000000000000000be92f2692f42580300fd8d0ee198b5bbbe303e78"
          ],
          "data": "0x0000000000000000000000000000000000000000000000000000000000009d350000000000000000000000000000000000000000000000056bc75e2d631000000000000000000000000000000000000000000000000000056bc75e2d63100000",
          "blockHash": "0x834b951420807acea40fbc1d332321b967259af3bedaeb8a5ba69db436684bbc",
          "blockNumber": "0x603dcd",
          "transactionHash": "0x6746a021b16b83b20968fe84c519f194f990389b70095096a043cd4d71f06bc2",
          "transactionIndex": "0x5f",
          "logIndex": "0x18c",
          "removed": false
        }
      ],
      "logsBloom": "0x000000000000000000000000200000000000000000000000000000000001000000000000000000002000000000000000000000000000000000000000000000000000020000000000000000084000000000000000000000000000400000000008000000000200000082000000000008000000000000000000000000100000000000000000000000200000000a0000000001000000000000200000000000000000000000008000000000100200000000000000000000400000000440000000000000000002000000000000000080000000000000080000000000001000000020000000040000000000000000000000002000000000008000000000000000000020",
      "type": "0x2",
      "transactionHash": "0x6746a021b16b83b20968fe84c519f194f990389b70095096a043cd4d71f06bc2",
      "transactionIndex": "0x5f",
      "blockHash": "0x834b951420807acea40fbc1d332321b967259af3bedaeb8a5ba69db436684bbc",
      "blockNumber": "0x603dcd",
      "gasUsed": "0x38f90",
      "effectiveGasPrice": "0x31bd607555",
      "from": "0xbe92f2692f42580300fd8d0ee198b5bbbe303e78",
      "to": "0xde54beb534efb7da0ba8116dd44926cfb3e1d1f4",
      "contractAddress": null
    }
  ],
  "libraries": [],
  "pending": [],
  "returns": {},
  "timestamp": 1720937766,
  "chain": 11155111,
  "commit": "1d13134"
}