{
  "transactions": [
    {
      "hash": "0x681a6ee8e46df2bfa962e0f5ddb3369b39e325b8bc7e69b8feec18bbbbd6c305",
      "transactionType": "CALL",
      "contractName": null,
      "contractAddress": "0xde54beb534efb7da0ba8116dd44926cfb3e1d1f4",
      "function": "mint(uint256)",
      "arguments": [
        "100000000000000000000"
      ],
      "transaction": {
        "from": "0xbe92f2692f42580300fd8d0ee198b5bbbe303e78",
        "to": "0xde54beb534efb7da0ba8116dd44926cfb3e1d1f4",
        "gas": "0x16f05",
        "value": "0x0",
        "input": "0xa0712d680000000000000000000000000000000000000000000000056bc75e2d63100000",
        "nonce": "0x2f",
        "chainId": "0xaa36a7"
      },
      "additionalContracts": [],
      "isFixedGasLimit": false
    },
    {
      "hash": "0x026ced09faa31bde1a15cc31acf035eaf762f2ea050301ca243117667112a052",
      "transactionType": "CALL",
      "contractName": null,
      "contractAddress": "0xde54beb534efb7da0ba8116dd44926cfb3e1d1f4",
      "function": "send((uint32,bytes32,uint256,uint256,bytes,bytes,bytes),(uint256,uint256),address)",
      "arguments": [
        "(40287, 0x000000000000000000000000f1771f24bdd7123acceae534945e96abc83bbb61, 100000000000000000000, 100000000000000000000, 0x, 0x, 0x)",
        "(70293833613699, 0)",
        "0xbE92f2692f42580300fD8d0Ee198b5bBbe303e78"
      ],
      "transaction": {
        "from": "0xbe92f2692f42580300fd8d0ee198b5bbbe303e78",
        "to": "0xde54beb534efb7da0ba8116dd44926cfb3e1d1f4",
        "gas": "0x4eb18",
        "value": "0x3fee8efb8183",
        "input": "0xc7c7f5b3000000000000000000000000000000000000000000000000000000000000008000000000000000000000000000000000000000000000000000003fee8efb81830000000000000000000000000000000000000000000000000000000000000000000000000000000000000000be92f2692f42580300fd8d0ee198b5bbbe303e780000000000000000000000000000000000000000000000000000000000009d5f000000000000000000000000f1771f24bdd7123acceae534945e96abc83bbb610000000000000000000000000000000000000000000000056bc75e2d631000000000000000000000000000000000000000000000000000056bc75e2d6310000000000000000000000000000000000000000000000000000000000000000000e000000000000000000000000000000000000000000000000000000000000001000000000000000000000000000000000000000000000000000000000000000120000000000000000000000000000000000000000000000000000000000000000000000000000000000000000000000000000000000000000000000000000000000000000000000000000000000000000000000000000000000000000000000000",
        "nonce": "0x30",
        "chainId": "0xaa36a7"
      },
      "additionalContracts": [],
      "isFixedGasLimit": false
    }
  ],
  "receipts": [
    {
      "status": "0x1",
      "cumulativeGasUsed": "0x1a90d9",
      "logs": [
        {
          "address": "0xde54beb534efb7da0ba8116dd44926cfb3e1d1f4",
          "topics": [
            "0xddf252ad1be2c89b69c2b068fc378daa952ba7f163c4a11628f55a4df523b3ef",
            "0x0000000000000000000000000000000000000000000000000000000000000000",
            "0x000000000000000000000000be92f2692f42580300fd8d0ee198b5bbbe303e78"
          ],
          "data": "0x0000000000000000000000000000000000000000000000056bc75e2d63100000",
          "blockHash": "0x94cdf7c94f4aa72c01b807b12afdbfb0a09b56f66e1177959a8997b5aed85aa0",
          "blockNumber": "0x603dc3",
          "transactionHash": "0x681a6ee8e46df2bfa962e0f5ddb3369b39e325b8bc7e69b8feec18bbbbd6c305",
          "transactionIndex": "0xa",
          "logIndex": "0x1b",
          "removed": false
        }
      ],
      "logsBloom": "0x00000000000000000000000020000000000000000000000000000000000000000000000000000000000000000000000000000000000000000000000000000000000000000000000000000008400000000000000000000000000000000000000800000000020000000000000000000800000000000000000000000010000000000000000000000000000000020000000001000000000000000000000000000000000000000000000000000200000000000000000000000000000000000000000000000002000000000000000000000000000000000000000000000000000020000000000000000000000000000000000000000000000000000000000000000000",
      "type": "0x2",
      "transactionHash": "0x681a6ee8e46df2bfa962e0f5ddb3369b39e325b8bc7e69b8feec18bbbbd6c305",
      "transactionIndex": "0xa",
      "blockHash": "0x94cdf7c94f4aa72c01b807b12afdbfb0a09b56f66e1177959a8997b5aed85aa0",
      "blockNumber": "0x603dc3",
      "gasUsed": "0x109b8",
      "effectiveGasPrice": "0x36422deaa4",
      "from": "0xbe92f2692f42580300fd8d0ee198b5bbbe303e78",
      "to": "0xde54beb534efb7da0ba8116dd44926cfb3e1d1f4",
      "contractAddress": null
    },
    {
      "status": "0x1",
      "cumulativeGasUsed": "0x1e2069",
      "logs": [
        {
          "address": "0xde54beb534efb7da0ba8116dd44926cfb3e1d1f4",
          "topics": [
            "0xddf252ad1be2c89b69c2b068fc378daa952ba7f163c4a11628f55a4df523b3ef",
            "0x000000000000000000000000be92f2692f42580300fd8d0ee198b5bbbe303e78",
            "0x0000000000000000000000000000000000000000000000000000000000000000"
          ],
          "data": "0x0000000000000000000000000000000000000000000000056bc75e2d63100000",
          "blockHash": "0x94cdf7c94f4aa72c01b807b12afdbfb0a09b56f66e1177959a8997b5aed85aa0",
          "blockNumber": "0x603dc3",
          "transactionHash": "0x026ced09faa31bde1a15cc31acf035eaf762f2ea050301ca243117667112a052",
          "transactionIndex": "0xb",
          "logIndex": "0x1c",
          "removed": false
        },
        {
          "address": "0xcc1ae8cf5d3904cef3360a9532b477529b177cce",
          "topics": [
            "0x61ed099e74a97a1d7f8bb0952a88ca8b7b8ebd00c126ea04671f92a81213318a"
          ],
          "data": "0x000000000000000000000000718b92b5cb0a5552039b593faf724d182a881eda00000000000000000000000000000000000000000000000000003ce332d72603",
          "blockHash": "0x94cdf7c94f4aa72c01b807b12afdbfb0a09b56f66e1177959a8997b5aed85aa0",
          "blockNumber": "0x603dc3",
          "transactionHash": "0x026ced09faa31bde1a15cc31acf035eaf762f2ea050301ca243117667112a052",
          "transactionIndex": "0xb",
          "logIndex": "0x1d",
          "removed": false
        },
        {
          "address": "0xcc1ae8cf5d3904cef3360a9532b477529b177cce",
          "topics": [
            "0x07ea52d82345d6e838192107d8fd7123d9c2ec8e916cd0aad13fd2b60db24644"
          ],
          "data": "0x000000000000000000000000000000000000000000000000000000000000006000000000000000000000000000000000000000000000000000000000000000a000000000000000000000000000000000000000000000000000000000000000c000000000000000000000000000000000000000000000000000000000000000010000000000000000000000008eebf8b423b73bfca51a1db4b7354aa0bfca9193000000000000000000000000000000000000000000000000000000000000000000000000000000000000000000000000000000000000000000000000000000010000000000000000000000000000000000000000000000000000030b5c245b80",
          "blockHash": "0x94cdf7c94f4aa72c01b807b12afdbfb0a09b56f66e1177959a8997b5aed85aa0",
          "blockNumber": "0x603dc3",
          "transactionHash": "0x026ced09faa31bde1a15cc31acf035eaf762f2ea050301ca243117667112a052",
          "transactionIndex": "0xb",
          "logIndex": "0x1e",
          "removed": false
        },
        {
          "address": "0x6edce65403992e310a62460808c4b910d972f10f",
          "topics": [
            "0x1ab700d4ced0c005b164c0f789fd09fcbb0156d4c2041b8a3bfbcd961cd1567f"
          ],
          "data": "0x00000000000000000000000000000000000000000000000000000000000000600000000000000000000000000000000000000000000000000000000000000120000000000000000000000000cc1ae8cf5d3904cef3360a9532b477529b177cce000000000000000000000000000000000000000000000000000000000000009901000000000000000100009ce1000000000000000000000000de54beb534efb7da0ba8116dd44926cfb3e1d1f400009d5f000000000000000000000000c19ac697392eaaf3cca5505209542abf8edcd12e214ddbd4991c6fd59a05fda8b95cac3fbbba3401d7f92edce7e323af1bbc62c3000000000000000000000000f1771f24bdd7123acceae534945e96abc83bbb610000000005f5e1000000000000000000000000000000000000000000000000000000000000000000000000000000160003010011010000000000000000000000000000ea6000000000000000000000",
          "blockHash": "0x94cdf7c94f4aa72c01b807b12afdbfb0a09b56f66e1177959a8997b5aed85aa0",
          "blockNumber": "0x603dc3",
          "transactionHash": "0x026ced09faa31bde1a15cc31acf035eaf762f2ea050301ca243117667112a052",
          "transactionIndex": "0xb",
          "logIndex": "0x1f",
          "removed": false
        },
        {
          "address": "0xde54beb534efb7da0ba8116dd44926cfb3e1d1f4",
          "topics": [
            "0x85496b760a4b7f8d66384b9df21b381f5d1b1e79f229a47aaf4c232edc2fe59a",
            "0x214ddbd4991c6fd59a05fda8b95cac3fbbba3401d7f92edce7e323af1bbc62c3",
            "0x000000000000000000000000be92f2692f42580300fd8d0ee198b5bbbe303e78"
          ],
          "data": "0x0000000000000000000000000000000000000000000000000000000000009d5f0000000000000000000000000000000000000000000000056bc75e2d631000000000000000000000000000000000000000000000000000056bc75e2d63100000",
          "blockHash": "0x94cdf7c94f4aa72c01b807b12afdbfb0a09b56f66e1177959a8997b5aed85aa0",
          "blockNumber": "0x603dc3",
          "transactionHash": "0x026ced09faa31bde1a15cc31acf035eaf762f2ea050301ca243117667112a052",
          "transactionIndex": "0xb",
          "logIndex": "0x20",
          "removed": false
        }
      ],
      "logsBloom": "0x000000000000000000000000200000000000000000000000000000000001000000000000000000002000000000000000000000000000000000000000000000000000020000000000000000084000000000000000004000000000000000000008000000000200000082000000000008000000000000400000000000100000000000000000000000200000000a0000000001000000000000000000000000000000000000008000000000100200000000000000000000400000000440000000000000000002000000000000000080000200000000080000000000000000000020000000040000000000000000000000002000000000008000000000000000000020",
      "type": "0x2",
      "transactionHash": "0x026ced09faa31bde1a15cc31acf035eaf762f2ea050301ca243117667112a052",
      "transactionIndex": "0xb",
      "blockHash": "0x94cdf7c94f4aa72c01b807b12afdbfb0a09b56f66e1177959a8997b5aed85aa0",
      "blockNumber": "0x603dc3",
      "gasUsed": "0x38f90",
      "effectiveGasPrice": "0x36422deaa4",
      "from": "0xbe92f2692f42580300fd8d0ee198b5bbbe303e78",
      "to": "0xde54beb534efb7da0ba8116dd44926cfb3e1d1f4",
      "contractAddress": null
    }
  ],
  "libraries": [],
  "pending": [],
  "returns": {},
  "timestamp": 1720937608,
  "chain": 11155111,
  "commit": "1d13134"
}