{
  "transactions": [
    {
      "hash": "0x7d2cae8dfe07d31a7fc1170b93f1ad4b072291df35fc84aa21629e515c485f77",
      "transactionType": "CALL",
      "contractName": null,
      "contractAddress": "0xc19ac697392eaaf3cca5505209542abf8edcd12e",
      "function": "mint(uint256)",
      "arguments": [
        "100000000000000000000"
      ],
      "transaction": {
        "from": "0xbe92f2692f42580300fd8d0ee198b5bbbe303e78",
        "to": "0xc19ac697392eaaf3cca5505209542abf8edcd12e",
        "gas": "0x16f05",
        "value": "0x0",
        "input": "0xa0712d680000000000000000000000000000000000000000000000056bc75e2d63100000",
        "nonce": "0x8",
        "chainId": "0xa96"
      },
      "additionalContracts": [],
      "isFixedGasLimit": false
    },
    {
      "hash": "0xc4e24af898a47e4230a7a8859144151906e8441d374e130bd3c19f83b94defd0",
      "transactionType": "CALL",
      "contractName": null,
      "contractAddress": "0xc19ac697392eaaf3cca5505209542abf8edcd12e",
      "function": "send((uint32,bytes32,uint256,uint256,bytes,bytes,bytes),(uint256,uint256),address)",
      "arguments": [
        "(40275, 0x000000000000000000000000f1771f24bdd7123acceae534945e96abc83bbb61, 100000000000000000000, 100000000000000000000, 0x, 0x, 0x)",
        "(55856454073535, 0)",
        "0xbE92f2692f42580300fD8d0Ee198b5bBbe303e78"
      ],
      "transaction": {
        "from": "0xbe92f2692f42580300fd8d0ee198b5bbbe303e78",
        "to": "0xc19ac697392eaaf3cca5505209542abf8edcd12e",
        "gas": "0x5a39e",
        "value": "0x32cd181a7cbf",
        "input": "0xc7c7f5b30000000000000000000000000000000000000000000000000000000000000080000000000000000000000000000000000000000000000000000032cd181a7cbf0000000000000000000000000000000000000000000000000000000000000000000000000000000000000000be92f2692f42580300fd8d0ee198b5bbbe303e780000000000000000000000000000000000000000000000000000000000009d53000000000000000000000000f1771f24bdd7123acceae534945e96abc83bbb610000000000000000000000000000000000000000000000056bc75e2d631000000000000000000000000000000000000000000000000000056bc75e2d6310000000000000000000000000000000000000000000000000000000000000000000e000000000000000000000000000000000000000000000000000000000000001000000000000000000000000000000000000000000000000000000000000000120000000000000000000000000000000000000000000000000000000000000000000000000000000000000000000000000000000000000000000000000000000000000000000000000000000000000000000000000000000000000000000000000",
        "nonce": "0x9",
        "chainId": "0xa96"
      },
      "additionalContracts": [],
      "isFixedGasLimit": false
    }
  ],
  "receipts": [
    {
      "status": "0x1",
      "cumulativeGasUsed": "0x109b8",
      "logs": [
        {
          "address": "0xc19ac697392eaaf3cca5505209542abf8edcd12e",
          "topics": [
            "0xddf252ad1be2c89b69c2b068fc378daa952ba7f163c4a11628f55a4df523b3ef",
            "0x0000000000000000000000000000000000000000000000000000000000000000",
            "0x000000000000000000000000be92f2692f42580300fd8d0ee198b5bbbe303e78"
          ],
          "data": "0x0000000000000000000000000000000000000000000000056bc75e2d63100000",
          "blockHash": "0x38a04316292e2dc198efeeccde46c327f1de2a4c43afca5a3a38b369bf8c64f9",
          "blockNumber": "0x2be133",
          "transactionHash": "0x7d2cae8dfe07d31a7fc1170b93f1ad4b072291df35fc84aa21629e515c485f77",
          "transactionIndex": "0x0",
          "logIndex": "0x0",
          "removed": false
        }
      ],
      "logsBloom": "0x00000000000000000000000000000000000000000000000000000000000000000000000000000000000000000000000000000000001000000000000000000000000000000000000000000008400000000000000000000000000000000000000800000000020000000000000000000800000000000000000000000010000000000000000000000000000000000000000000000000000000000000000000000000000000000000000000000200000000000000000000000000000000000000000000000002000000000000000000000000000000000000000000000000000020000080000000000000080000000000000000000000000000000000000000000000",
      "type": "0x0",
      "transactionHash": "0x7d2cae8dfe07d31a7fc1170b93f1ad4b072291df35fc84aa21629e515c485f77",
      "transactionIndex": "0x0",
      "blockHash": "0x38a04316292e2dc198efeeccde46c327f1de2a4c43afca5a3a38b369bf8c64f9",
      "blockNumber": "0x2be133",
      "gasUsed": "0x109b8",
      "effectiveGasPrice": "0x77359400",
      "from": "0xbe92f2692f42580300fd8d0ee198b5bbbe303e78",
      "to": "0xc19ac697392eaaf3cca5505209542abf8edcd12e",
      "contractAddress": null,
      "l1Fee": "0xbfba692f861"
    },
    {
      "status": "0x1",
      "cumulativeGasUsed": "0x41528",
      "logs": [
        {
          "address": "0xc19ac697392eaaf3cca5505209542abf8edcd12e",
          "topics": [
            "0xddf252ad1be2c89b69c2b068fc378daa952ba7f163c4a11628f55a4df523b3ef",
            "0x000000000000000000000000be92f2692f42580300fd8d0ee198b5bbbe303e78",
            "0x0000000000000000000000000000000000000000000000000000000000000000"
          ],
          "data": "0x0000000000000000000000000000000000000000000000056bc75e2d63100000",
          "blockHash": "0xa1849f905a57c55b1397d874eef3cd52fd9e95b1f64cae605975dd527616bed2",
          "blockNumber": "0x2be134",
          "transactionHash": "0xc4e24af898a47e4230a7a8859144151906e8441d374e130bd3c19f83b94defd0",
          "transactionIndex": "0x0",
          "logIndex": "0x0",
          "removed": false
        },
        {
          "address": "0x1d186c560281b8f1af831957ed5047fd3ab902f9",
          "topics": [
            "0x61ed099e74a97a1d7f8bb0952a88ca8b7b8ebd00c126ea04671f92a81213318a"
          ],
          "data": "0x0000000000000000000000004cf1b3fa61465c2c907f82fc488b43223ba0cf930000000000000000000000000000000000000000000000000000304d8dfd5d7c",
          "blockHash": "0xa1849f905a57c55b1397d874eef3cd52fd9e95b1f64cae605975dd527616bed2",
          "blockNumber": "0x2be134",
          "transactionHash": "0xc4e24af898a47e4230a7a8859144151906e8441d374e130bd3c19f83b94defd0",
          "transactionIndex": "0x0",
          "logIndex": "0x1",
          "removed": false
        },
        {
          "address": "0x1d186c560281b8f1af831957ed5047fd3ab902f9",
          "topics": [
            "0x07ea52d82345d6e838192107d8fd7123d9c2ec8e916cd0aad13fd2b60db24644"
          ],
          "data": "0x000000000000000000000000000000000000000000000000000000000000006000000000000000000000000000000000000000000000000000000000000000a000000000000000000000000000000000000000000000000000000000000000c0000000000000000000000000000000000000000000000000000000000000000100000000000000000000000055c175dd5b039331db251424538169d8495c18d1000000000000000000000000000000000000000000000000000000000000000000000000000000000000000000000000000000000000000000000000000000010000000000000000000000000000000000000000000000000000027f8a1d1f43",
          "blockHash": "0xa1849f905a57c55b1397d874eef3cd52fd9e95b1f64cae605975dd527616bed2",
          "blockNumber": "0x2be134",
          "transactionHash": "0xc4e24af898a47e4230a7a8859144151906e8441d374e130bd3c19f83b94defd0",
          "transactionIndex": "0x0",
          "logIndex": "0x2",
          "removed": false
        },
        {
          "address": "0x6edce65403992e310a62460808c4b910d972f10f",
          "topics": [
            "0x1ab700d4ced0c005b164c0f789fd09fcbb0156d4c2041b8a3bfbcd961cd1567f"
          ],
          "data": "0x000000000000000000000000000000000000000000000000000000000000006000000000000000000000000000000000000000000000000000000000000001200000000000000000000000001d186c560281b8f1af831957ed5047fd3ab902f9000000000000000000000000000000000000000000000000000000000000009901000000000000000100009d62000000000000000000000000c19ac697392eaaf3cca5505209542abf8edcd12e00009d53000000000000000000000000c19ac697392eaaf3cca5505209542abf8edcd12ec534ec066097c8bd4ef3c07cc76a8b9d6644ccfe1f60bb0a7ed2d2d79ec75b3e000000000000000000000000f1771f24bdd7123acceae534945e96abc83bbb610000000005f5e1000000000000000000000000000000000000000000000000000000000000000000000000000000160003010011010000000000000000000000000000ea6000000000000000000000",
          "blockHash": "0xa1849f905a57c55b1397d874eef3cd52fd9e95b1f64cae605975dd527616bed2",
          "blockNumber": "0x2be134",
          "transactionHash": "0xc4e24af898a47e4230a7a8859144151906e8441d374e130bd3c19f83b94defd0",
          "transactionIndex": "0x0",
          "logIndex": "0x3",
          "removed": false
        },
        {
          "address": "0xc19ac697392eaaf3cca5505209542abf8edcd12e",
          "topics": [
            "0x85496b760a4b7f8d66384b9df21b381f5d1b1e79f229a47aaf4c232edc2fe59a",
            "0xc534ec066097c8bd4ef3c07cc76a8b9d6644ccfe1f60bb0a7ed2d2d79ec75b3e",
            "0x000000000000000000000000be92f2692f42580300fd8d0ee198b5bbbe303e78"
          ],
          "data": "0x0000000000000000000000000000000000000000000000000000000000009d530000000000000000000000000000000000000000000000056bc75e2d631000000000000000000000000000000000000000000000000000056bc75e2d63100000",
          "blockHash": "0xa1849f905a57c55b1397d874eef3cd52fd9e95b1f64cae605975dd527616bed2",
          "blockNumber": "0x2be134",
          "transactionHash": "0xc4e24af898a47e4230a7a8859144151906e8441d374e130bd3c19f83b94defd0",
          "transactionIndex": "0x0",
          "logIndex": "0x4",
          "removed": false
        }
      ],
      "logsBloom": "0x00000000000000000000000000000000000000000000000000000100000000000000000000000000200000000000000000000000001000000000000000004000000002000000000000000008400000000000000000000200000000000000000800000000020000008200000000000800000000000000000000000010000000000000000000000020000000080000000000000000000000000000000000000000000000008000000000100200000000000000080000400000000440000000000000000002000000000000000080000000000000000008000000000000000020000080040000000000080000000000002000000000008000008000000000000000",
      "type": "0x0",
      "transactionHash": "0xc4e24af898a47e4230a7a8859144151906e8441d374e130bd3c19f83b94defd0",
      "transactionIndex": "0x0",
      "blockHash": "0xa1849f905a57c55b1397d874eef3cd52fd9e95b1f64cae605975dd527616bed2",
      "blockNumber": "0x2be134",
      "gasUsed": "0x41528",
      "effectiveGasPrice": "0x77359400",
      "from": "0xbe92f2692f42580300fd8d0ee198b5bbbe303e78",
      "to": "0xc19ac697392eaaf3cca5505209542abf8edcd12e",
      "contractAddress": null,
      "l1Fee": "0x12b1dce4609e"
    }
  ],
  "libraries": [],
  "pending": [],
  "returns": {},
  "timestamp": 1720931390,
  "chain": 2710,
  "commit": "20e1a40"
}